:100000000C9434000C943E000C943E000C943E0082
:100010000C943E000C943E000C943E000C94630043
:100020000C943E000C943E000C943E000C943E0058
:100030000C943E000C943E000C943E000C943E0048
:100040000C943E000C943E000C943E000C943E0038
:100050000C943E000C943E000C943E000C943E0028
:100060000C943E000C943E0011241FBECFEFD8E04C
:10007000DEBFCDBF0E9440000C949E000C94000097
:10008000CF93DF93CDB7DEB784E290E024E230E097
:10009000F90120812260FC01208380EB90E022E0C6
:1000A000FC01208381EB90E022E0FC01208383EBC4
:1000B00090E024E6FC01208380E790E022E0FC0150
:1000C00020837894FFCF1F920F9200905F000F92D1
:1000D00011242F933F938F939F93EF93FF93CF938D
:1000E000DF93CDB7DEB785E290E0FC018081882FF9
:1000F00090E082709927009751F085E290E025E228
:1001000030E0F90120812D7FFC01208309C085E2C8
:1001100090E025E230E0F90120812260FC0120839B
:10012000DF91CF91FF91EF919F918F913F912F910F
:100130000F9000925F000F901F901895F894FFCFDA
:00000001FF
