:100000000C9434000C943E000C943E000C943E0082
:100010000C943E000C943E000C943E000C943E0068
:100020000C943E000C943E000C943E000C943E0058
:100030000C943E000C943E000C943E000C943E0048
:100040000C943E000C943E000C943E000C943E0038
:100050000C943E000C943E000C943E000C943E0028
:100060000C943E000C943E0011241FBECFEFD8E04C
:10007000DEBFCDBF0E9477000C94B6000C94000048
:10008000CF93DF93CDB7DEB728970FB6F894DEBFD6
:100090000FBECDBF98878F838DEA93E09E838D83BB
:1000A0001A82198214C01C821B8205C08B819C811C
:1000B00001969C838B832B813C818D819E812817A7
:1000C0003907A0F389819A8101969A8389832981CE
:1000D0003A818F8198852817390728F328960FB61B
:1000E000F894DEBF0FBECDBFDF91CF910895CF93BF
:1000F000DF9300D000D0CDB7DEB719821A821B8201
:100100001C8284E290E024E230E0F90120812C603E
:10011000FC01208385E290E025E230E0F9012081B6
:100120002460FC0120838CE490E020E5FC01208326
:1001300088E290E02FEFFC01208387E290E0FC0151
:1001400010828EE490E026E230E0F90120812095D3
:10015000FC01208300008DE490E0FC018081882375
:10016000D4F781E090E00E944000EBCFF894FFCFFD
:00000001FF
