:100000000C9434000C9446000C9446000C9446006A
:100010000C9446000C9446000C9446000C94460048
:100020000C9446000C9446000C9446000C94460038
:100030000C9446000C9446000C9446000C94460028
:100040000C9446000C9446000C9446000C94460018
:100050000C9446000C9446000C9446000C94460008
:100060000C9446000C94460011241FBECFEFD8E03C
:10007000DEBFCDBF11E0A0E0B1E001C01D92AC3108
:10008000B107E1F70E942F030C9474050C94000053
:10009000CF93DF93CDB7DEB780910A018130F9F4B9
:1000A00080910901882F90E020910901222F30E0F2
:1000B0002D5E3E4FF9012081622F20910801422FD1
:1000C00050E021E030E0042E02C0220F331F0A94DA
:1000D000E2F7262B8D5E9E4FFC012083A6C0809107
:1000E0000A018230F9F480910901882F90E0209173
:1000F0000901222F30E020503F4FF9012081622F6B
:1001000020910801422F50E021E030E0042E02C08F
:10011000220F331F0A94E2F7262B80509F4FFC01D9
:10012000208383C080910A018330F9F48091090112
:10013000882F90E020910901222F30E0255F3E4F6B
:10014000F9012081622F20910801422F50E021E027
:1001500030E0042E02C0220F331F0A94E2F7262B50
:10016000855F9E4FFC01208360C080910A0184302E
:1001700009F05BC080910901882F90E0209109016E
:10018000222F30E02D5E3E4FF9012081622F209119
:100190000801422F50E021E030E002C0220F331F5F
:1001A0004A95E2F7209526238D5E9E4FFC01208321
:1001B00080910901882F90E020910901222F30E0E1
:1001C00020503F4FF9012081622F20910801422FDA
:1001D00050E021E030E002C0220F331F4A95E2F7E1
:1001E0002095262380509F4FFC0120838091090198
:1001F000882F90E020910901222F30E0255F3E4FAB
:10020000F9012081622F20910801422F50E021E066
:1002100030E0042E02C0220F331F0A94E2F720952B
:100220002623855F9E4FFC012083DF91CF910895A7
:10023000CF93DF93CDB7DEB728970FB6F894DEBF24
:100240000FBECDBF98878F838DEA93E09E838D8309
:100250001A82198214C01C821B8205C08B819C816A
:1002600001969C838B832B813C818D819E812817F5
:100270003907A0F389819A8101969A83898329811C
:100280003A818F8198852817390728F328960FB669
:10029000F894DEBF0FBECDBFDF91CF910895CF930D
:1002A000DF93CDB7DEB784E290E024E230E0F901DD
:1002B00020812C60FC01208385E290E025E230E083
:1002C000F90120812460FC0120838AE290E02AE287
:1002D00030E0F90120812460FC0120838BE290E072
:1002E0002BE230E0F90120812460FC0120838AE2C6
:1002F00090E02AE230E0F90120812860FC012083AF
:100300008BE290E02BE230E0F90120812860FC01D3
:1003100020838AE290E02AE230E0F9012081206126
:10032000FC0120838BE290E02BE230E0F901208198
:100330002061FC0120838AE290E02AE230E0F901AA
:1003400020812062FC0120838BE290E02BE230E0F0
:10035000F90120812062FC0120838AE290E02AE2F8
:1003600030E0F90120812064FC0120838BE290E0E1
:100370002BE230E0F90120812064FC0120838AE235
:1003800090E02AE230E0F90120812068FC0120831E
:100390008BE290E02BE230E0F90120812068FC0143
:1003A000208384E290E024E230E0F90120812160A2
:1003B000FC01208385E290E025E230E0F901208114
:1003C0002160FC01208384E290E024E230E0F90126
:1003D00020812061FC01208385E290E025E230E06D
:1003E000F90120812061FC012083DF91CF910895E4
:1003F000CF93DF931F92CDB7DEB781E0898327C10A
:100400008CE490E020E5FC0120838EE490E02091D4
:100410001B01FC01208300008DE490E0FC01808141
:100420008823D4F78EE490E02981222F30E02150F8
:1004300031092D5E3E4FF9012081FC01208300002F
:100440008DE490E0FC0180818823D4F78EE490E075
:100450002981222F30E021503109255F3E4FF901DB
:100460002081FC01208300008DE490E0FC0180816C
:100470008823D4F78EE490E02981222F30E02150A8
:10048000310920503F4FF9012081FC0120830000F9
:100490008DE490E0FC0180818823D4F78CE490E027
:1004A000FC0110828981813051F48BE290E02BE2D3
:1004B00030E0F90120812B7FFC0120835AC0898123
:1004C000823051F48BE290E02BE230E0F9012081A0
:1004D000277FFC0120834DC08981833051F48BE25A
:1004E00090E02BE230E0F90120812F7EFC01208397
:1004F00040C08981843051F48BE290E02BE230E0FF
:10050000F90120812F7DFC01208333C08981853052
:1005100051F48BE290E02BE230E0F90120812F7B57
:10052000FC01208326C08981863051F48BE290E063
:100530002BE230E0F90120812F77FC01208319C0E4
:100540008981873051F485E290E025E230E0F901BD
:1005500020812E7FFC0120830CC08981883049F4E2
:1005600085E290E025E230E0F90120812F7EFC0158
:10057000208381E090E00E9418018981813051F44C
:100580008BE290E02BE230E0F90120812460FC0155
:1005900020835AC08981823051F48BE290E02BE2B3
:1005A00030E0F90120812860FC0120834DC0898161
:1005B000833051F48BE290E02BE230E0F9012081AE
:1005C0002061FC01208340C08981843051F48BE29A
:1005D00090E02BE230E0F90120812062FC012083D1
:1005E00033C08981853051F48BE290E02BE230E01A
:1005F000F90120812064FC01208326C08981863096
:1006000051F48BE290E02BE230E0F9012081206888
:10061000FC01208319C08981873051F485E290E084
:1006200025E230E0F90120812160FC0120830CC02B
:100630008981883049F485E290E025E230E0F901D3
:1006400020812061FC01208389818F5F89838981DA
:10065000893008F4D5CE0F90DF91CF910895CF93D4
:10066000DF93CDB7DEB727970FB6F894DEBF0FBE86
:10067000CDBF88E290E02FEFFC01208387E290E07D
:10068000FC0110820E944F0183E08093080183E007
:100690008093090181E080930A011A82198286E21F
:1006A00090E0FC01808180958F738E8386E290E0DC
:1006B000FC01808180958F738F838F81882F90E0DC
:1006C0009C01247033278E81882F90E084709927B5
:1006D0008095909582239323009791F08091080153
:1006E000882F90E0019687709078992324F40197E1
:1006F000886F9F6F0196809308010E944800A4C0F4
:100700008F81882F90E09C01287033278E81882F5D
:1007100090E0887099278095909582239323009785
:1007200091F080910801882F90E001978770907870
:10073000992324F40197886F9F6F01968093080195
:100740000E94480081C08F81882F90E09C01207218
:1007500033278E81882F90E080729927809590951D
:1007600082239323009791F080910901882F90E0D4
:10077000019787709078992324F40197886F9F6F71
:100780000196809309010E9448005EC08F81882FE6
:1007900090E09C01207133278E81882F90E080713A
:1007A00099278095909582239323009791F08091CB
:1007B0000901882F90E0019687709078992324F49E
:1007C0000197886F9F6F0196809309010E944800EE
:1007D0003BC08F81882F90E09C01227033278E814F
:1007E000882F90E08270992780959095822393239B
:1007F000009769F080910A01882F90E0019625E02A
:1008000030E0B9010E944C0580930A011DC08F8120
:10081000882F90E09C01217033278E81882F90E0F3
:10082000817099278095909582239323009761F09A
:1008300080910A01882F90E0049625E030E0B9010C
:100840000E944C0580930A0180910A01282F30E014
:1008500081E090E0022E02C0880F991F0A94E2F70F
:1008600080931B0189819A818F31910508F499C089
:1008700080910901882F90E08D5E9E4FFC01808160
:10088000482F80910801282F30E081E090E002C0DD
:10089000880F991F2A95E2F784238B8380910901A1
:1008A000882F90E0855F9E4FFC018081482F8091CA
:1008B0000801282F30E081E090E002C0880F991FE6
:1008C0002A95E2F784238C8380910901882F90E098
:1008D00080509F4FFC018081482F80910801282F74
:1008E00030E081E090E002C0880F991F2A95E2F77E
:1008F00084238D8380910901882F90E02091090144
:10090000222F30E0255F3E4FF9012081622F209198
:100910000801422F50E021E030E002C0220F331FD7
:100920004A95E2F7262B855F9E4FFC01208380913C
:100930000901882F90E020910901222F30E02050FA
:100940003F4FF9012081622F20910801422F50E092
:1009500021E030E002C0220F331F4A95E2F7262B38
:1009600080509F4FFC01208380910901882F90E0E7
:1009700020910901222F30E02D5E3E4FF9012081A8
:10098000622F20910801422F50E021E030E002C0A8
:10099000220F331F4A95E2F7262B8D5E9E4FFC01F6
:1009A00020830E94F80189819A818F31910508F492
:1009B00064C080910901882F90E020910901222FC5
:1009C00030E02D5E3E4FF9012081622F2091080119
:1009D000422F50E021E030E002C0220F331F4A9541
:1009E000E2F72095362F32232B81232B8D5E9E4FED
:1009F000FC01208380910901882F90E0209109015A
:100A0000222F30E0255F3E4FF9012081622F209197
:100A10000801422F50E021E030E002C0220F331FD6
:100A20004A95E2F72095362F32232C81232B855FC0
:100A30009E4FFC01208380910901882F90E0209136
:100A40000901222F30E020503F4FF9012081622F11
:100A500020910801422F50E021E030E0042E02C036
:100A6000220F331F0A94E2F72095362F32232D816F
:100A7000232B80509F4FFC01208389819A8101960E
:100A80009A83898389819A818D33910510F01A8226
:100A900019828F818E830ACE97FB072E16F400945D
:100AA00007D077FD09D00E94600507FC05D03EF411
:100AB000909581959F4F0895709561957F4F08950A
:100AC000AA1BBB1B51E107C0AA1FBB1FA617B70774
:100AD00010F0A61BB70B881F991F5A95A9F7809590
:0C0AE0009095BC01CD010895F894FFCF63
:00000001FF
