:100000000C9434000C943E000C943E000C943E0082
:100010000C943E000C943E000C943E000C943E0068
:100020000C943E000C943E000C943E000C943E0058
:100030000C943E000C943E000C943E000C943E0048
:100040000C943E000C943E000C943E000C943E0038
:100050000C943E000C943E000C943E000C943E0028
:100060000C943E000C943E0011241FBECFEFD8E04C
:10007000DEBFCDBF0E947C000C9492000C94000067
:10008000CF93DF93CDB7DEB785EC90E0FC01108213
:1000900084EC90E027E6FC01208380EC90E020ECEB
:1000A00030E0F90120812D7FFC01208382EC90E07B
:1000B00026E0FC01208381EC90E028E1FC01208314
:1000C000DF91CF910895CF93DF931F92CDB7DEB725
:1000D000898380EC90E0FC018081882F90E0807221
:1000E00099270097B1F386EC90E02981FC012083E9
:1000F0000F90DF91CF910895CF93DF93CDB7DEB707
:100100000E94400088E60E94630085E60E9463002A
:100110008CE60E9463008CE60E9463008FE60E94DA
:080120006300F0CFF894FFCF5B
:00000001FF
