:100000000C9434000C943E000C943E000C943E0082
:100010000C943E000C943E000C943E000C943E0068
:100020000C943E000C943E000C943E000C943E0058
:100030000C943E000C943E000C943E000C943E0048
:100040000C943E000C943E000C943E000C943E0038
:100050000C943E000C943E000C943E000C943E0028
:100060000C943E000C943E0011241FBECFEFD8E04C
:10007000DEBFCDBF0E9477000C949F000C9400005F
:10008000CF93DF93CDB7DEB728970FB6F894DEBFD6
:100090000FBECDBF98878F838DEA93E09E838D83BB
:1000A0001A82198214C01C821B8205C08B819C811C
:1000B00001969C838B832B813C818D819E812817A7
:1000C0003907A0F389819A8101969A8389832981CE
:1000D0003A818F8198852817390728F328960FB61B
:1000E000F894DEBF0FBECDBFDF91CF910895CF93BF
:1000F000DF93CDB7DEB784E290E024E230E0F9018F
:1001000020812260FC01208385E290E025E230E03E
:10011000F90120812260FC01208382E090E00E94AE
:10012000400085E290E025E230E0F90120812D7F5A
:10013000FC01208382E090E00E944000E5CFF8942B
:02014000FFCFEF
:00000001FF
