:100000000C9434000C9451000C9451000C94510049
:100010000C9451000C9451000C9451000C9451001C
:100020000C9451000C9451000C9451000C9451000C
:100030000C9451000C9451000C94910C0C945100B0
:100040000C9451000C9451000C9451000C945100EC
:100050000C9451000C9451000C9451000C945100DC
:100060000C9451000C94510011241FBECFEFD8E026
:10007000DEBFCDBF11E0A0E0B1E0E4EAFCE102C0E8
:1000800005900D92A830B107D9F711E0A8E0B1E0D2
:1000900001C01D92AB3BB107E1F70E943F0C0C94ED
:1000A000500E0C940000CF93DF9300D000D000D00E
:1000B000CDB7DEB79C838B837E836D8384E290E033
:1000C00024E230E0F90120812260FC0120831A82C1
:1000D000198225C085E290E025E230E0F901208117
:1000E0002260FC0120838B819C81BC0182E090E036
:1000F0000E949F0085E290E025E230E0F901208136
:100100002D7FFC0120838B819C81BC0182E090E0EB
:100110000E949F0089819A8101969A83898329810F
:100120003A818D819E8128173907A0F226960FB655
:10013000F894DEBF0FBECDBFDF91CF910895CF936E
:10014000DF93CDB7DEB72A970FB6F894DEBF0FBEA8
:10015000CDBF98878F837A87698789859A859C0127
:1001600040E050E080E094E2A4EFB0E0BC01CD01BB
:100170000E94920DDA01C9019E838D831A82198231
:1001800014C01C821B8205C08B819C8101969C83BC
:100190008B832B813C818D819E8128173907A0F3A9
:1001A00089819A8101969A83898329813A818F81F5
:1001B00098852817390728F32A960FB6F894DEBFDA
:1001C0000FBECDBFDF91CF910895CF93DF93CDB711
:1001D000DEB728970FB6F894DEBF0FBECDBF988765
:1001E0008F838DEA93E09E838D831A82198214C0D7
:1001F0001C821B8205C08B819C8101969C838B8312
:100200002B813C818D819E8128173907A0F389813C
:100210009A8101969A83898329813A818F81988571
:100220002817390728F328960FB6F894DEBF0FBEBB
:10023000CDBFDF91CF910895CF93DF931F92CDB7BC
:10024000DEB784E290E024E230E0F90120812C6006
:10025000FC01208385E290E025E230E0F901208175
:100260002460FC0120838AE290E02AE230E0F90178
:1002700020812460FC0120838BE290E02BE230E0BF
:10028000F90120812460FC0120838AE290E02AE2C7
:1002900030E0F90120812860FC0120838BE290E0AE
:1002A0002BE230E0F90120812860FC0120838AE202
:1002B00090E02AE230E0F90120812061FC012083F6
:1002C0008BE290E02BE230E0F90120812061FC011B
:1002D00020838AE290E02AE230E0F9012081206266
:1002E000FC0120838BE290E02BE230E0F9012081D9
:1002F0002062FC0120838AE290E02AE230E0F901EA
:1003000020812064FC0120838BE290E02BE230E02E
:10031000F90120812064FC0120838AE290E02AE236
:1003200030E0F90120812068FC0120838BE290E01D
:100330002BE230E0F90120812068FC01208384E277
:1003400090E024E230E0F90120812160FC0120836B
:1003500085E290E025E230E0F90120812160FC0196
:10036000208384E290E024E230E0F90120812061E2
:10037000FC01208385E290E025E230E0F901208154
:100380002061FC012083198218C08981882F90E0A8
:10039000895D9E4FFC0110828981882F90E0825EEA
:1003A0009E4FFC0110828981882F90E08E5E9E4FC7
:1003B000FC01108289818F5F89838981883028F3CD
:1003C0000F90DF91CF910895CF93DF931F92CDB718
:1003D000DEB7198218C08981882F90E0895D9E4F11
:1003E000FC0110828981882F90E0825E9E4FFC0183
:1003F00010828981882F90E08E5E9E4FFC011082D2
:1004000089818F5F89838981883028F30F90DF91FC
:10041000CF910895CF93DF931F92CDB7DEB781E0E0
:10042000898323C18CE490E020E5FC0120838EE4E5
:1004300090E020912F01FC01208300008DE490E0EA
:10044000FC0180818823D4F78EE490E02981222F5B
:1004500030E021503109295D3E4FF9012081FC0136
:10046000208300008DE490E0FC0180818823D4F794
:100470008EE490E02981222F30E021503109225E64
:100480003E4FF9012081FC01208300008DE490E0C3
:10049000FC0180818823D4F78EE490E02981222F0B
:1004A00030E0215031092E5E3E4FF9012081FC01E0
:1004B000208300008DE490E0FC0180818823D4F744
:1004C0008CE490E0FC0110828981813051F48BE250
:1004D00090E02BE230E0F90120812B7FFC012083AA
:1004E0005AC08981823051F48BE290E02BE230E0F7
:1004F000F9012081277FFC0120834DC08981833051
:1005000051F48BE290E02BE230E0F90120812F7E64
:10051000FC01208340C08981843051F48BE290E05B
:100520002BE230E0F90120812F7DFC01208333C0D4
:100530008981853051F48BE290E02BE230E0F901C3
:1005400020812F7BFC01208326C08981863051F4D5
:100550008BE290E02BE230E0F90120812F77FC0163
:10056000208319C08981873051F485E290E025E22B
:1005700030E0F90120812E7FFC0120830CC08981AD
:10058000883049F485E290E025E230E0F9012081ED
:100590002F7EFC0120838981813051F48BE290E031
:1005A0002BE230E0F90120812460FC0120835AC055
:1005B0008981823051F48BE290E02BE230E0F90146
:1005C00020812860FC0120834DC08981833051F453
:1005D0008BE290E02BE230E0F90120812061FC0108
:1005E000208340C08981843051F48BE290E02BE27B
:1005F00030E0F90120812062FC01208333C0898131
:10060000853051F48BE290E02BE230E0F90120815B
:100610002064FC01208326C08981863051F48BE25E
:1006200090E02BE230E0F90120812068FC0120837A
:1006300019C08981873051F485E290E025E230E0ED
:10064000F90120812160FC0120830CC08981883060
:1006500049F485E290E025E230E0F9012081206153
:10066000FC01208389818F5F89838981893008F427
:10067000D9CE0F90DF91CF910895CF93DF9300D023
:1006800000D0CDB7DEB789836A835C834B838B81CF
:100690009C818330910509F40FC18430910548F4A1
:1006A0008130910509F466C08230910508F0B3C02D
:1006B00011C08530910509F4A2C18530910508F477
:1006C0004DC18630910509F4ECC18730910509F4DC
:1006D0003AC28CC28A81882F90E02A81222F30E092
:1006E000295D3E4FF9012081622F2981422F50E080
:1006F00021E030E002C0220F331F4A95E2F7262B9B
:10070000895D9E4FFC0120838A81882F90E02A8199
:10071000222F30E0225E3E4FF9012081622F298195
:10072000422F50E021E030E002C0220F331F4A95F3
:10073000E2F7262B825E9E4FFC0120838A81882F60
:1007400090E02A81222F30E02E5E3E4FF901208179
:10075000622F2981422F50E021E030E0042E02C0B8
:10076000220F331F0A94E2F7262B8E5E9E4FFC0168
:1007700020833CC28A81882F90E02A81222F30E09A
:10078000295D3E4FF9012081622F2981422F50E0DF
:1007900021E030E002C0220F331F4A95E2F7262BFA
:1007A000895D9E4FFC0120838A81882F90E02A81F9
:1007B000222F30E0225E3E4FF9012081622F2981F5
:1007C000422F50E021E030E002C0220F331F4A9553
:1007D000E2F7262B825E9E4FFC0120838A81882FC0
:1007E00090E02A81222F30E02E5E3E4FF9012081D9
:1007F000622F2981422F50E02FEF3FEF042E02C0DD
:10080000220F331F0A94E2F7209526238E5E9E4F17
:10081000FC012083EBC18A81882F90E02A81222F5E
:1008200030E0295D3E4FF9012081622F2981422F5E
:1008300050E021E030E002C0220F331F4A95E2F77A
:10084000262B895D9E4FFC0120838A81882F90E0B2
:100850002A81222F30E0225E3E4FF9012081622F53
:100860002981422F50E02FEF3FEF02C0220F331FAC
:100870004A95E2F720952623825E9E4FFC01208355
:100880008A81882F90E02A81222F30E02E5E3E4F11
:10089000F9012081622F2981422F50E021E030E0D0
:1008A000042E02C0220F331F0A94E2F7262B8E5E1D
:1008B0009E4FFC0120839AC18A81882F90E02A8173
:1008C000222F30E0295D3E4FF9012081622F2981DE
:1008D000422F50E021E030E002C0220F331F4A9542
:1008E000E2F7262B895D9E4FFC0120838A81882FA9
:1008F00090E02A81222F30E0225E3E4FF9012081D4
:10090000622F2981422F50E02FEF3FEF02C0220FCC
:10091000331F4A95E2F720952623825E9E4FFC0105
:1009200020838A81882F90E02A81222F30E02E5E5A
:100930003E4FF9012081622F2981422F50E02FEF95
:100940003FEF042E02C0220F331F0A94E2F72095D6
:1009500026238E5E9E4FFC01208348C18A81882F0A
:1009600090E02A81222F30E0295D3E4FF90120815D
:10097000622F2981422F50E02FEF3FEF02C0220F5C
:10098000331F4A95E2F720952623895D9E4FFC018F
:1009900020838A81882F90E02A81222F30E0225EF6
:1009A0003E4FF9012081622F2981422F50E021E042
:1009B00030E002C0220F331F4A95E2F7262B825EF9
:1009C0009E4FFC0120838A81882F90E02A81222F6C
:1009D00030E02E5E3E4FF9012081622F2981422FA7
:1009E00050E021E030E0042E02C0220F331F0A94B1
:1009F000E2F7262B8E5E9E4FFC012083F7C08A8192
:100A0000882F90E02A81222F30E0295D3E4FF901A6
:100A10002081622F2981422F50E02FEF3FEF02C04B
:100A2000220F331F4A95E2F720952623895D9E4FBA
:100A3000FC0120838A81882F90E02A81222F30E0D8
:100A4000225E3E4FF9012081622F2981422F50E022
:100A500021E030E002C0220F331F4A95E2F7262B37
:100A6000825E9E4FFC0120838A81882F90E02A813C
:100A7000222F30E02E5E3E4FF9012081622F298126
:100A8000422F50E02FEF3FEF042E02C0220F331F02
:100A90000A94E2F7209526238E5E9E4FFC01208368
:100AA000A5C08A81882F90E02A81222F30E0295D1D
:100AB0003E4FF9012081622F2981422F50E02FEF14
:100AC0003FEF02C0220F331F4A95E2F720952623FD
:100AD000895D9E4FFC0120838A81882F90E02A81C6
:100AE000222F30E0225E3E4FF9012081622F2981C2
:100AF000422F50E02FEF3FEF02C0220F331F4A95E5
:100B0000E2F720952623825E9E4FFC0120838A8196
:100B1000882F90E02A81222F30E02E5E3E4FF9018F
:100B20002081622F2981422F50E021E030E0042E05
:100B300002C0220F331F0A94E2F7262B8E5E9E4FCF
:100B4000FC01208353C08A81882F90E02A81222FC4
:100B500030E0295D3E4FF9012081622F2981422F2B
:100B600050E02EEF3FEF02C0220F331F4A95E2F70D
:100B700020952623895D9E4FFC0120838A81882F42
:100B800090E02A81222F30E0225E3E4FF901208141
:100B9000622F2981422F50E02EEF3FEF02C0220F3B
:100BA000331F4A95E2F720952623825E9E4FFC0173
:100BB00020838A81882F90E02A81222F30E02E5EC8
:100BC0003E4FF9012081622F2981422F50E02EEF04
:100BD0003FEF042E02C0220F331F0A94E2F7209544
:100BE00026238E5E9E4FFC01208300000F900F9005
:100BF0000F900F90DF91CF910895CF93DF93CDB7F2
:100C0000DEB784E290E024E230E0F90120812C603C
:100C1000FC01208385E290E025E230E0F9012081AB
:100C20002460FC0120838CE490E020E5FC0120831B
:100C300088E290E02FEFFC01208387E290E0FC0146
:100C40001082DF91CF910895CF93DF93CDB7DEB7B8
:100C500086E290E0FC01808180958F73DF91CF91D7
:100C60000895CF93DF93CDB7DEB785EC90E0FC011C
:100C7000108284EC90E027E6FC01208380EC90E079
:100C800020EC30E0F90120812D7FFC01208382ECF3
:100C900090E026E0FC01208381EC90E028E1FC015B
:100CA0002083DF91CF910895CF93DF931F92CDB72B
:100CB000DEB7898380EC90E0FC018081882F90E092
:100CC000807299270097B1F386EC90E02981FC01AE
:100CD00020830F90DF91CF910895CF93DF931F92E0
:100CE000CDB7DEB70E942406898389818170809305
:100CF0001B01898182708093260189818470809391
:100D000030018981887080931C0189818071809372
:100D10001D018981807280931A018981809311015C
:100D20000F90DF91CF910895CF93DF9300D0CDB78F
:100D3000DEB70E942406898380911101982F909537
:100D4000898189238A838A81817080931B018A81AA
:100D50008270809326018A818470809330018A8119
:100D6000887080931C018A81807180931D018A8123
:100D7000807280931A018981809311010F900F90E6
:100D8000DF91CF910895CF93DF93CDB7DEB70E9467
:100D900031060E94FD050E94F0060E941C01DF91B1
:100DA000CF910895CF93DF93CDB7DEB7DF91CF9189
:100DB0000895CF93DF93CDB7DEB7DF91CF9108953C
:100DC000CF93DF93CDB7DEB7DF91CF910895CF9367
:100DD000DF93CDB7DEB780E090E0DF91CF9108954B
:100DE000CF93DF93CDB7DEB784E490E022E0FC013F
:100DF000208385E490E022E0FC01208387E490E0FA
:100E000029E6FC0120838EE690E022E0FC012083AD
:100E1000DF91CF910895CF93DF9300D000D0CDB76D
:100E2000DEB79A8389837C836B8301C000000E94B4
:100E3000050E282F277089819A81FC0120830E944A
:100E4000050E282F277089819A81FC0121838981D1
:100E50009A81FC018081282F30E08B819C81FC01EC
:100E60008081992787FD90952817390781F489811A
:100E70009A81FC018181282F30E08B819C81FC01CB
:100E80008181992787FD90952817390779F2898103
:100E90009A81FC01138212820F900F900F900F9095
:100EA000DF91CF910895CF93DF9300D01F92CDB7FC
:100EB000DEB79B838A830E94050E282F27708A81C4
:100EC0009B81FC0120830E94050E282F27708A81B8
:100ED0009B81FC012183198223C08981882F90E0A6
:100EE0002A813B81F90140812A813B810296880F4A
:100EF000991F820F931FFC0140838981882F90E006
:100F00002A813B81F90141812A813B81880F991F08
:100F1000820F931F0596FC01408389818F5F89832F
:100F200089818230D0F28A819B818B579F4FFC014F
:100F300010828A819B818C579F4F26E0FC01208381
:100F40008A819B81FC01138212820F900F900F9077
:100F5000DF91CF910895CF93DF9300D000D000D0E0
:100F6000CDB7DEB79A8389837C836B835E834D83A1
:100F70000E94E40144E050E066E082E00E943D030C
:100F800044E050E066E083E00E943D0344E050E02E
:100F900066E084E00E943D0344E050E066E085E0C6
:100FA0000E943D0344E050E066E086E00E943D037D
:100FB00044E050E063E082E00E943D0344E050E002
:100FC00063E083E00E943D0344E050E063E084E09E
:100FD0000E943D0344E050E063E085E00E943D0351
:100FE00044E050E063E086E00E943D0344E050E0CE
:100FF00064E084E00E943D0344E050E065E084E06A
:101000000E943D0344E050E061E082E00E943D0325
:1010100044E050E061E083E00E943D0344E050E0A2
:1010200061E084E00E943D0344E050E061E086E03E
:101030000E943D030E940A020E94940680912601AC
:10104000882321F480911B01882391F089819A8162
:1010500022E030E0FC01318320838B819C810E945F
:1010600053072B813C818D819E81B9010E940B0722
:1010700026960FB6F894DEBF0FBECDBFDF91CF919D
:101080000895CF93DF9300D0CDB7DEB79A838983DD
:101090000E94E40142E050E060E080E00E943D03F5
:1010A00042E050E061E081E00E943D0342E050E018
:1010B00062E082E00E943D0342E050E063E083E0B2
:1010C0000E943D0342E050E064E084E00E943D0362
:1010D00042E050E065E085E00E943D0342E050E0E0
:1010E00066E086E00E943D0342E050E067E087E072
:1010F0000E943D0342E050E060E087E00E943D0333
:1011000042E050E061E086E00E943D0342E050E0B2
:1011100062E085E00E943D0342E050E063E084E04D
:101120000E943D0342E050E064E083E00E943D0302
:1011300042E050E065E082E00E943D0342E050E082
:1011400066E081E00E943D0342E050E067E080E01D
:101150000E943D0342E050E060E080E00E943D03D9
:101160000E940A020E94940680912601882321F49D
:1011700080911B01882329F089819A81FC011182C9
:1011800010820F900F90DF91CF910895CF93DF934E
:1011900000D0CDB7DEB79A83898389819A81FC011B
:1011A0008081882334F489819A8127E0FC0120839F
:1011B0000AC089819A81FC018081883024F089816C
:1011C0009A81FC0110820F900F90DF91CF910895CA
:1011D000CF93DF93CDB7DEB727970FB6F894DEBF76
:1011E0000FBECDBF9F838E838E819F81FC01808146
:1011F0008A838E819F81FC0181818B838E819F8177
:10120000FC0182819381009709F4B0C08E819F8197
:10121000FC018281938182309105C9F08330910570
:1012200020F48130910541F033C083309105D1F035
:101230008430910511F12CC08E819F81FC01818148
:101240008F5F282F8E819F81FC01218322C08E8198
:101250009F81FC0181818150282F8E819F81FC011B
:10126000218317C08E819F81FC0180818F5F282F91
:101270008E819F81FC0120830CC08E819F81FC01A7
:1012800080818150282F8E819F81FC01208301C0A5
:1012900000008E819F810E94C6088E819F810196E9
:1012A0000E94C60819823BC08981882F90E02E8158
:1012B0003F810296880F991F820F931FFC01808146
:1012C0008C838981882F90E02E813F81880F991F20
:1012D000820F931F0596FC0180818D838981882F61
:1012E00090E02E813F810296880F991F820F931FF5
:1012F0002A81FC0120838981882F90E02E813F8103
:10130000880F991F820F931F05962B81FC01208364
:101310008C818A838D818B8389818F5F89838E8184
:101320009F818B579F4FFC0190818981891708F419
:10133000BBCF8E819F818B579F4FFC0120818E8177
:101340009F818C579F4FFC018081281780F48E81EC
:101350009F818B579F4FFC018081282F2F5F8E81AB
:101360009F818B579F4FFC01208301C0000027966F
:101370000FB6F894DEBF0FBECDBFDF91CF910895B9
:10138000CF93DF931F92CDB7DEB78E81982F8F81D9
:1013900045E050E0692F0E943D03198227C08981F2
:1013A000992787FD90950296880F991F26E030E0D7
:1013B0002C0F3D1F820F931FFC018081282F8981F4
:1013C000992787FD9095880F991F46E050E04C0FB4
:1013D0005D1F840F951F0596FC01808145E050E05C
:1013E000622F0E943D0389818F5F89838981282F25
:1013F000332727FD3095CE0185579F4FFC01808113
:10140000882F90E02817390754F20F90DF91CF9181
:101410000895CF93DF9300D000D0CDB7DEB76983B6
:101420007A838B839C838B819C81009739F499818B
:101430008A8144E050E0692F0E943D030F900F9095
:101440000F900F90DF91CF910895CF93DF9300D04D
:10145000CDB7DEB79A83898389819A818C579F4F54
:10146000FC018081882F90E029813A812C573F4FE1
:10147000F9012081222F30E02150310949815A8120
:101480002E5F3F4F220F331F240F351FF90140817C
:1014900029813A810296880F991F820F931FFC01C0
:1014A000408389819A818C579F4FFC018081882FCE
:1014B00090E029813A812C573F4FF9012081222F5A
:1014C00030E02150310949815A81220F331F240F06
:1014D000351F2B5F3F4FF901408129813A81880FE9
:1014E000991F820F931F0596FC01408389819A8181
:1014F0008C579F4FFC018081282F2F5F89819A8113
:101500008C579F4FFC0120830F900F90DF91CF915C
:101510000895CF93DF9300D000D01F92CDB7DEB7F0
:101520009B838A837D836C838A819B81FC0180817C
:10153000282F332727FD30958C819D81FC018081E8
:10154000882F90E028173907E9F48A819B81FC01F4
:101550008181282F332727FD30958C819D81FC01C7
:101560008181882F90E02817390761F48A819B8157
:101570000E94250A2A813B818C819D81B9010E94AC
:101580000B074DC0198241C08981882F90E02A81C4
:101590003B810296880F991F820F931FFC01808167
:1015A000282F332727FD30958C819D81FC01808178
:1015B000882F90E02817390729F58981882F90E036
:1015C0002A813B81880F991F820F931F0596FC018A
:1015D0008081282F332727FD30958C819D81FC0148
:1015E0008181882F90E02817390761F48A819B81D7
:1015F0000E94250A2A813B818C819D81B9010E942C
:101600000B070DC089818F5F89838A819B818B57EE
:101610009F4FFC0190818981891708F4B5CF0F9005
:101620000F900F900F900F90DF91CF910895CF936F
:10163000DF9300D01F92CDB7DEB79B838A831982D8
:101640002DC028858981882F90E00296880F991FE8
:1016500048E050E04C0F5D1F840F951FFC01808116
:101660002817C9F429858981882F90E0880F991F50
:1016700048E050E04C0F5D1F840F951F0596FC015C
:101680008081281741F48A819B8121E030E0FC01B0
:10169000318320830BC089818F5F8983CE0183577B
:1016A0009F4FFC0190818981891758F20F900F900C
:1016B0000F90DF91CF910895CF93DF9300D0CDB7F6
:1016C000DEB79A83898380910F0190911001009772
:1016D00049F447EB51E061E371E08FE091E00E9453
:1016E000AB078DC080910F01909110018230910560
:1016F00009F080C080910A0190910B01009769F078
:101700008DE590E0FC012081318180910A0190916A
:101710000B0182962817390711F40E9494068091D4
:101720000C0190910D01009799F08DE590E0FC017E
:101730002081318180910C0190910D018296821758
:10174000930730F062E370E08AE99AE10E94530067
:1017500080913001882371F08091330190913401A0
:101760008230910539F081E090E0909334018093CC
:10177000330135C080911C01882371F080913301C1
:10178000909134018130910539F082E090E090939E
:1017900034018093330123C080911D01882371F0AF
:1017A00080913301909134018430910539F083E0C8
:1017B00090E0909334018093330111C080911A011D
:1017C000882369F080913301909134018330910531
:1017D00031F084E090E0909334018093330181E311
:1017E00091E00E94E80867EB71E081E391E00E94DC
:1017F000890A05C08FE091E00E94410878948981B0
:101800009A81FC01118210820F900F90DF91CF918D
:101810000895CF93DF93CDB7DEB70E94E4018DB773
:101820009EB7865891090FB6F8949EBF0FBE8DBF24
:101830008DB79EB7019626E8E1E3F1E0DC01019067
:101840000D922A95E1F70E94C0098DB79EB78A577D
:101850009F4F0FB6F894DEBF0FBECDBF8091B7018A
:101860009091B801A091B901B091BA01BC01CD012C
:101870000E94090A0E940A02DF91CF910895CF9336
:10188000DF9300D0CDB7DEB71A8219820E94C3065B
:1018900001C000008091B501282F30E046EF4203DF
:1018A000C001439F900D1124845D9E4F9C0189814E
:1018B0009A812817390728F4CE0101960E945C0B03
:1018C00005C089819A8101969A83898380910F014D
:1018D0009091100182309105E1F60E94090C8DB7BC
:1018E0009EB7865891090FB6F8949EBF0FBE8DBF64
:1018F0008DB79EB7019626E8E1E3F1E0DC010190A7
:101900000D922A95E1F78FE091E00E94170B8DB7B9
:101910009EB78A579F4F0FB6F894DEBF0FBECDBF5C
:10192000B8CF0F921F922F923F924F925F926F9279
:101930007F928F929F92AF92BF92CF92DF92EF925F
:10194000FF920F931F932F933F934F935F936F9348
:101950007F938F939F93AF93BF93CF93DF93EF9337
:10196000FF9380910A0190910B01009709F09AC0B2
:10197000FF91EF91DF91CF91BF91AF919F918F91A7
:101980007F916F915F914F913F912F911F910F9197
:10199000FF90EF90DF90CF90BF90AF909F908F908F
:1019A0007F906F905F904F903F902F901F900F907F
:1019B0000F921F922F923F924F925F926F927F925F
:1019C0008F929F92AF92BF92CF92DF92EF92FF924F
:1019D0000F931F932F933F934F935F936F937F9337
:1019E0008F939F93AF93BF93CF93DF93EF93FF9327
:1019F0008DE590E0FC018081918190930B018093B3
:101A00000A010F920F920F921F922F923F924F92C4
:101A10005F926F927F928F929F92AF92BF92CF927E
:101A2000DF92EF92FF920F931F932F933F934F9369
:101A30005F936F937F938F939F93AF93BF93CF9356
:101A4000DF93EF93FF938DE590E02DE530E0F90112
:101A5000208131812E5B3F4FFC01318320830F9029
:101A60001F908DE590E02DE530E0F9012081318176
:101A700022523109FC01318320831F920F928DE5A0
:101A800090E0FC0180819181809790930D0180937B
:101A90000C018DE590E020910A0130910B01FC01D1
:101AA000318320838DE590E0FC012081318180919C
:101AB0000C0190910D012817390751F48DE590E044
:101AC00020910A0130910B01FC013183208309C070
:101AD0008DE590E020910C0130910D01FC013183E6
:101AE0002083FF91EF91DF91CF91BF91AF919F91B3
:101AF0008F917F916F915F914F913F912F911F91A6
:101B00000F91FF90EF90DF90CF90BF90AF909F909C
:101B10008F907F906F905F904F903F902F901F908D
:101B20000F901895A1E21A2EAA1BBB1BFD010DC038
:101B3000AA1FBB1FEE1FFF1FA217B307E407F5077D
:101B400020F0A21BB30BE40BF50B661F771F881F59
:101B5000991F1A9469F760957095809590959B01EF
:101B6000AC01BD01CF0108958F929F92AF92BF92B9
:101B7000CF92DF92EF92FF92CF93DF93EC016881D7
:101B800079818A819B81611571058105910521F417
:101B900064E279ED8BE597E02DE133EF41E050E031
:101BA0000E94280E49015A019B01AC01A7EAB1E449
:101BB0000E94150E6B017C01ACEEB4EFA5019401FF
:101BC0000E94230EC60ED71EE81EF91EF7FE06C0A1
:101BD00081E0C81AD108E10880E8F80AC882D982F1
:101BE000EA82FB82E894D7F8EE24FF24C601DF9155
:101BF000CF91FF90EF90DF90CF90BF90AF909F90EC
:101C00008F9008950E94B40D089584E091E00E94A1
:101C1000B40D0895A0E0B0E0809304019093050115
:101C2000A0930601B093070108950E94440EA59F5A
:101C3000900DB49F900DA49F800D911D11240895C7
:101C4000B7FF0C94150E0E94150E821B930B08957E
:101C5000052E97FB16F4009407D057FD0DD00E9477
:101C6000920D07FC09D07EF4909580957095619552
:101C70007F4F8F4F9F4F08955095409530952195F8
:101C80003F4F4F4F5F4F0895A29FB001B39FC001D8
:101C9000A39F01D0B29F700D811D1124911D089545
:041CA000F894FFCFE6
:081CA4003000300001000000D7
:00000001FF
