:100000000C9434000C943E000C943E000C943E0082
:100010000C943E000C943E000C943E000C943E0068
:100020000C943E000C943E000C943E000C943E0058
:100030000C943E000C943E000C9426010C943E005F
:100040000C943E000C943E000C943E000C943E0038
:100050000C943E000C943E000C943E000C943E0028
:100060000C943E000C943E0011241FBECFEFD8E04C
:10007000DEBFCDBF0E94F7000C9465010C94000018
:10008000CF93DF93CDB7DEB784E290E024E230E097
:10009000F90120812C60FC01208385E290E025E2BB
:1000A00030E0F90120812460FC0120838CE490E0A1
:1000B00020E5FC01208388E290E02FEFFC01208303
:1000C00087E290E0FC011082DF91CF910895CF93F9
:1000D000DF93CDB7DEB786E290E0FC0180818095AA
:1000E0008F73DF91CF910895CF93DF93CDB7DEB7B4
:1000F00028970FB6F894DEBF0FBECDBF98878F83C9
:100100008DEA93E09E838D831A82198214C01C822B
:100110001B8205C08B819C8101969C838B832B81E4
:100120003C818D819E8128173907A0F389819A81AE
:1001300001969A83898329813A818F81988528172E
:10014000390728F328960FB6F894DEBF0FBECDBF4F
:10015000DF91CF910895CF93DF9300D000D000D0EE
:10016000CDB7DEB79C838B837E836D8384E290E082
:1001700024E230E0F90120812260FC0120831A8210
:10018000198225C085E290E025E230E0F901208166
:100190002260FC0120838B819C81BC0182E090E085
:1001A0000E94740085E290E025E230E0F9012081B0
:1001B0002D7FFC0120838B819C81BC0182E090E03B
:1001C0000E94740089819A8101969A83898329818A
:1001D0003A818D819E8128173907A0F226960FB6A5
:1001E000F894DEBF0FBECDBFDF91CF9108950F937E
:1001F0001F93CF93DF93CDB7DEB784E490E022E086
:10020000FC01208385E490E022E0FC01208387E468
:1002100090E024E6FC0120838EE690E022E0FC01E1
:1002200020830E94400078940EE410E00E94670052
:10023000F801808300008DE490E0FC018081882338
:10024000D4F780E090E00E947400EECF1F920F92EE
:1002500000905F000F9211242F933F934F935F9371
:100260006F937F938F939F93AF93BF93EF93FF937E
:10027000CF93DF93CDB7DEB778948EE490E0FC01A6
:100280008081882F90E081709927009751F064E673
:1002900070E08BE09EE80E94AB0080E090E00E945E
:1002A0007400DF91CF91FF91EF91BF91AF919F913A
:1002B0008F917F916F915F914F913F912F910F900F
:0E02C00000925F000F901F901895F894FFCFEA
:00000001FF
