:100000000C9434000C943E000C943E000C943E0082
:100010000C943E000C943E000C943E000C943E0068
:100020000C943E000C943E000C943E000C943E0058
:100030000C943E000C943E000C943E000C943E0048
:100040000C943E000C943E000C943E000C943E0038
:100050000C943E000C943E000C943E000C943E0028
:100060000C943E000C943E0011241FBECFEFD8E04C
:10007000DEBFCDBF0E9477000C94EF000C9400000F
:10008000CF93DF93CDB7DEB728970FB6F894DEBFD6
:100090000FBECDBF98878F838DEA93E09E838D83BB
:1000A0001A82198214C01C821B8205C08B819C811C
:1000B00001969C838B832B813C818D819E812817A7
:1000C0003907A0F389819A8101969A8389832981CE
:1000D0003A818F8198852817390728F328960FB61B
:1000E000F894DEBF0FBECDBFDF91CF910895CF93BF
:1000F000DF9300D000D0CDB7DEB783E0898385E001
:100100008A8389E08B8381E18C8384E290E024E21E
:1001100030E0F90120812C60FC01208385E290E031
:1001200025E230E0F90120812460FC0120838AE28D
:1001300090E02AE230E0F90120812062FC01208376
:100140008BE290E02BE230E0F90120812F7DFC0171
:1001500020838CE490E020E5FC0120838EE490E095
:100160002981FC01208300008DE490E0FC01808166
:100170008823D4F788EE93E00E9440008981882F7D
:1001800090E0880F991F982F8981881F8827881FE2
:10019000892B89838A81882F90E0880F991F982F57
:1001A0008A81881F8827881F892B8A838B81882FC3
:1001B00090E0880F991F982F8B81881F8827881FB0
:1001C000892B8B838C81882F90E0880F991F982F23
:1001D0008C81881F8827881F892B8C83BFCFF89438
:0201E000FFCF4F
:00000001FF
