:100000000C9434000C9446000C9446000C9446006A
:100010000C9446000C9446000C9446000C94460048
:100020000C9446000C9446000C9446000C94460038
:100030000C9446000C9446000C9446000C94460028
:100040000C9446000C9446000C9446000C94460018
:100050000C9446000C9446000C9446000C94460008
:100060000C9446000C94460011241FBECFEFD8E03C
:10007000DEBFCDBF11E0A0E0B1E001C01D92A9310B
:10008000B107E1F70E9433040C9499040C9400002A
:10009000CF93DF93CDB7DEB728970FB6F894DEBFC6
:1000A0000FBECDBF98878F838DEA93E09E838D83AB
:1000B0001A82198214C01C821B8205C08B819C810C
:1000C00001969C838B832B813C818D819E81281797
:1000D0003907A0F389819A8101969A8389832981BE
:1000E0003A818F8198852817390728F328960FB60B
:1000F000F894DEBF0FBECDBFDF91CF910895CF93AF
:10010000DF93CDB7DEB784E290E024E230E0F9017E
:1001100020812C60FC01208385E290E025E230E024
:10012000F90120812460FC0120838AE290E02AE228
:1001300030E0F90120812460FC0120838BE290E013
:100140002BE230E0F90120812460FC0120838AE267
:1001500090E02AE230E0F90120812860FC01208350
:100160008BE290E02BE230E0F90120812860FC0175
:1001700020838AE290E02AE230E0F90120812061C8
:10018000FC0120838BE290E02BE230E0F90120813A
:100190002061FC0120838AE290E02AE230E0F9014C
:1001A00020812062FC0120838BE290E02BE230E092
:1001B000F90120812062FC0120838AE290E02AE29A
:1001C00030E0F90120812064FC0120838BE290E083
:1001D0002BE230E0F90120812064FC0120838AE2D7
:1001E00090E02AE230E0F90120812068FC012083C0
:1001F0008BE290E02BE230E0F90120812068FC01E5
:10020000208384E290E024E230E0F9012081216043
:10021000FC01208385E290E025E230E0F9012081B5
:100220002160FC01208384E290E024E230E0F901C7
:1002300020812061FC01208385E290E025E230E00E
:10024000F90120812061FC012083DF91CF91089585
:10025000CF93DF93CDB7DEB784E290E024E230E0C5
:10026000F9012081237FFC0120838AE290E02AE2C9
:1002700030E0F90120812460FC0120838BE290E0D2
:100280002BE230E0F90120812B7FFC0120838AE200
:1002900090E02AE230E0F90120812860FC0120830F
:1002A0008BE290E02BE230E0F9012081277FFC0116
:1002B00020838AE290E02AE230E0F9012081206187
:1002C000FC0120838BE290E02BE230E0F9012081F9
:1002D0002F7EFC0120838AE290E02AE230E0F901DF
:1002E00020812062FC0120838BE290E02BE230E051
:1002F000F90120812F7DFC0120838AE290E02AE22F
:1003000030E0F90120812F7BFC0120838BE290E01B
:100310002BE230E0F90120812064FC0120838AE295
:1003200090E02AE230E0F90120812F77FC01208360
:100330008BE290E02BE230E0F90120812068FC01A3
:10034000208384E290E024E230E0F90120812E7FD6
:10035000FC01208385E290E025E230E0F901208174
:100360002160FC01208384E290E024E230E0F90186
:1003700020812F7EFC01208385E290E025E230E0A1
:10038000F90120812061FC012083DF91CF91089544
:10039000CF93DF9300D0CDB7DEB789836A838CE437
:1003A00090E020E5FC0120838EE490E0209118018C
:1003B000FC01208300008DE490E0FC018081882313
:1003C000D4F78CE490E0FC0110828EE490E0298167
:1003D000222F30E021503109205F3E4FF90120816A
:1003E000FC01208300008DE490E0FC0180818823E3
:1003F000D4F78EE490E02981222F30E0215031099A
:10040000285F3E4FF9012081FC01208300008DE42C
:1004100090E0FC0180818823D4F78EE490E029816C
:10042000222F30E02150310920503F4FF901208127
:10043000FC01208300008DE490E0FC018081882392
:10044000D4F78CE490E0FC0110828981813051F472
:100450008BE290E02BE230E0F90120812B7FFC0160
:1004600020835AC08981823051F48BE290E02BE2E4
:1004700030E0F9012081277FFC0120834DC0898174
:10048000833051F48BE290E02BE230E0F9012081DF
:100490002F7EFC01208340C08981843051F48BE29F
:1004A00090E02BE230E0F90120812F7DFC012083D8
:1004B00033C08981853051F48BE290E02BE230E04B
:1004C000F90120812F7BFC01208326C089818630A1
:1004D00051F48BE290E02BE230E0F90120812F779C
:1004E000FC01208319C08981873051F485E290E0B6
:1004F00025E230E0F90120812E7FFC0120830CC031
:100500008981883049F485E290E025E230E0F90104
:1005100020812F7EFC01208381E090E00E94480032
:100520008981813051F48BE290E02BE230E0F901D7
:1005300020812460FC0120835AC08981823051F4DB
:100540008BE290E02BE230E0F90120812860FC0191
:1005500020834DC08981833051F48BE290E02BE2FF
:1005600030E0F90120812061FC01208340C08981B5
:10057000843051F48BE290E02BE230E0F9012081ED
:100580002062FC01208333C08981853051F48BE2E5
:1005900090E02BE230E0F90120812064FC0120830F
:1005A00026C08981863051F48BE290E02BE230E066
:1005B000F90120812068FC01208319C089818730DE
:1005C00051F485E290E025E230E0F90120812160DC
:1005D000FC0120830CC08981883049F485E290E0D9
:1005E00025E230E0F90120812061FC0120830F9099
:1005F0000F90DF91CF910895CF93DF931F92CDB7E6
:10060000DEB781E0898327C18CE490E020E5FC011E
:1006100020838EE490E020911801FC0120830000EB
:100620008DE490E0FC0180818823D4F78EE490E093
:100630002981222F30E021503109205F3E4FF901FE
:100640002081FC01208300008DE490E0FC0180818A
:100650008823D4F78EE490E02981222F30E02150C6
:100660003109285F3E4FF9012081FC012083000001
:100670008DE490E0FC0180818823D4F78EE490E043
:100680002981222F30E02150310920503F4FF901BC
:100690002081FC01208300008DE490E0FC0180813A
:1006A0008823D4F78CE490E0FC01108289818130AA
:1006B00051F48BE290E02BE230E0F90120812B7FB6
:1006C000FC0120835AC08981823051F48BE290E092
:1006D0002BE230E0F9012081277FFC0120834DC00F
:1006E0008981833051F48BE290E02BE230E0F90114
:1006F00020812F7EFC01208340C08981843051F409
:100700008BE290E02BE230E0F90120812F7DFC01AB
:10071000208333C08981853051F48BE290E02BE255
:1007200030E0F90120812F7BFC01208326C08981E4
:10073000863051F48BE290E02BE230E0F901208129
:100740002F77FC01208319C08981873051F485E21D
:1007500090E025E230E0F90120812E7FFC0120832A
:100760000CC08981883049F485E290E025E230E0D0
:10077000F90120812F7EFC01208381E090E00E941E
:1007800048008981813051F48BE290E02BE230E027
:10079000F90120812460FC0120835AC089818230C4
:1007A00051F48BE290E02BE230E0F90120812860E7
:1007B000FC0120834DC08981833051F48BE290E0AD
:1007C0002BE230E0F90120812061FC01208340C050
:1007D0008981843051F48BE290E02BE230E0F90122
:1007E00020812062FC01208333C08981853051F44F
:1007F0008BE290E02BE230E0F90120812064FC01E3
:10080000208326C08981863051F48BE290E02BE270
:1008100030E0F90120812068FC01208319C0898122
:10082000873051F485E290E025E230E0F901208143
:100830002160FC0120830CC08981883049F485E265
:1008400090E025E230E0F90120812061FC01208365
:1008500089818F5F89838981893008F4D5CE0F9093
:10086000DF91CF910895CF93DF9300D0CDB7DEB75E
:100870000E947F008AEA8093180188E0809310012B
:100880008FEF8093090181E18093020180E88093DA
:10089000130180E48093140180E28093150180E1CC
:1008A000809316018AEA8093170100000E94FC02DF
:1008B00080911801882F90E0880F991F982F8091C0
:1008C0001801881F8827881F892B809318011A8296
:1008D000198221C089819A81805F9E4FFC018081AD
:1008E000882F90E0880F991F282F89819A81805F37
:1008F0009E4FFC018081881F8827881F822B282F0C
:1009000089819A81805F9E4FFC01208389819A8131
:1009100001969A83898389819A8188309105D4F2DE
:1009200084E690E00E9448000F900F90DF91CF91F5
:060930000895F894FFCFCA
:00000001FF
