:100000000C9434000C9446000C9446000C9446006A
:100010000C9446000C9446000C9446000C948D03FE
:100020000C9446000C9446000C9446000C94360345
:100030000C9446000C9446000C94DF020C9446008D
:100040000C9446000C9446000C9446000C94460018
:100050000C9446000C9446000C9446000C94460008
:100060000C9446000C94460011241FBECFEFD8E03C
:10007000DEBFCDBF11E0A0E0B1E001C01D92AB3208
:10008000B107E1F70E946E020C941C040C9400006E
:10009000CF93DF93CDB7DEB728970FB6F894DEBFC6
:1000A0000FBECDBF98878F838DEA93E09E838D83AB
:1000B0001A82198214C01C821B8205C08B819C810C
:1000C00001969C838B832B813C818D819E81281797
:1000D0003907A0F389819A8101969A8389832981BE
:1000E0003A818F8198852817390728F328960FB60B
:1000F000F894DEBF0FBECDBFDF91CF910895CF93AF
:10010000DF93CDB7DEB784E290E024E230E0F9017E
:1001100020812C60FC01208385E290E025E230E024
:10012000F90120812460FC0120838AE290E02AE228
:1001300030E0F90120812460FC0120838BE290E013
:100140002BE230E0F90120812460FC0120838AE267
:1001500090E02AE230E0F90120812860FC01208350
:100160008BE290E02BE230E0F90120812860FC0175
:1001700020838AE290E02AE230E0F90120812061C8
:10018000FC0120838BE290E02BE230E0F90120813A
:100190002061FC0120838AE290E02AE230E0F9014C
:1001A00020812062FC0120838BE290E02BE230E092
:1001B000F90120812062FC0120838AE290E02AE29A
:1001C00030E0F90120812064FC0120838BE290E083
:1001D0002BE230E0F90120812064FC0120838AE2D7
:1001E00090E02AE230E0F90120812068FC012083C0
:1001F0008BE290E02BE230E0F90120812068FC01E5
:10020000208384E290E024E230E0F9012081216043
:10021000FC01208385E290E025E230E0F9012081B5
:100220002160FC01208384E290E024E230E0F901C7
:1002300020812061FC01208385E290E025E230E00E
:10024000F90120812061FC012083DF91CF91089585
:10025000CF93DF931F92CDB7DEB781E0898327C1AB
:100260008CE490E020E5FC0120838EE490E0209176
:100270002A01FC01208300008DE490E0FC018081D4
:100280008823D4F78EE490E02981222F30E021509A
:1002900031092E5D3E4FF9012081FC0120830000D1
:1002A0008DE490E0FC0180818823D4F78EE490E017
:1002B0002981222F30E021503109265E3E4FF9017D
:1002C0002081FC01208300008DE490E0FC0180810E
:1002D0008823D4F78EE490E02981222F30E021504A
:1002E00031092E5E3E4FF9012081FC012083000080
:1002F0008DE490E0FC0180818823D4F78CE490E0C9
:10030000FC0110828981813051F48BE290E02BE274
:1003100030E0F90120812B7FFC0120835AC08981C4
:10032000823051F48BE290E02BE230E0F901208141
:10033000277FFC0120834DC08981833051F48BE2FB
:1003400090E02BE230E0F90120812F7EFC01208338
:1003500040C08981843051F48BE290E02BE230E0A0
:10036000F90120812F7DFC01208333C089818530F4
:1003700051F48BE290E02BE230E0F90120812F7BF9
:10038000FC01208326C08981863051F48BE290E005
:100390002BE230E0F90120812F77FC01208319C086
:1003A0008981873051F485E290E025E230E0F9015F
:1003B00020812E7FFC0120830CC08981883049F484
:1003C00085E290E025E230E0F90120812F7EFC01FA
:1003D000208381E090E00E9448008981813051F4BF
:1003E0008BE290E02BE230E0F90120812460FC01F7
:1003F00020835AC08981823051F48BE290E02BE255
:1004000030E0F90120812860FC0120834DC0898102
:10041000833051F48BE290E02BE230E0F90120814F
:100420002061FC01208340C08981843051F48BE23B
:1004300090E02BE230E0F90120812062FC01208372
:1004400033C08981853051F48BE290E02BE230E0BB
:10045000F90120812064FC01208326C08981863037
:1004600051F48BE290E02BE230E0F901208120682A
:10047000FC01208319C08981873051F485E290E026
:1004800025E230E0F90120812160FC0120830CC0CD
:100490008981883049F485E290E025E230E0F90175
:1004A00020812061FC01208389818F5F898389817C
:1004B000893008F4D5CE0F90DF91CF910895CF9376
:1004C000DF9300D01F92CDB7DEB789836A834B8359
:1004D0000F900F900F90DF91CF910895CF93DF93FE
:1004E000CDB7DEB70E947F008AEA80932A0188E0B8
:1004F000809322018CEC80931B0180EF8093230179
:100500008AEA8093130181E18093140180E880934B
:10051000250180E48093260180E28093270180E119
:10052000809328018AEA8093290184E290E024E202
:1005300030E0F90120812260FC01208380EB90E013
:1005400022E0FC01208381EB90E022E0FC0120838B
:1005500083EB90E02AE8FC01208380E790E022E032
:10056000FC01208380E890E022E0FC01208381E808
:1005700090E022E0FC01208388E890E02AE830E067
:10058000FC01318320838FE690E022E0FC01208390
:1005900084E490E022E0FC01208385E490E022E006
:1005A000FC01208387E490E02AE8FC0120838EE6AA
:1005B00090E022E0FC0120830E942801FDCF0F92F1
:1005C0001F922F923F924F925F926F927F928F92E3
:1005D0008EE590E0FC018081882F90E090930F01E0
:1005E00080930E018DE590E0FC018081882F90E0E2
:1005F000909311018093100178948091040190915F
:1006000005010196909305018093040180910401F6
:10061000909105018536910578F080911B01882F16
:1006200090E0880F991F982F80911B01881F8827C1
:10063000881F892B80931B018EE590E020910E018D
:1006400030910F01FC0120838DE590E02091100195
:1006500030911101FC0120838F907F906F905F900B
:100660004F903F902F901F900F9018950F921F92D0
:100670002F923F924F925F926F927F928F928EE570
:1006800090E0FC018081882F90E090930B01809393
:100690000A018DE590E0FC018081882F90E0909325
:1006A0000D0180930C0178948091020190910301D7
:1006B0000196909303018093020180910201909131
:1006C00003018536910578F080911401882F90E020
:1006D000880F991F982F80911401881F8827881FE1
:1006E000892B809314018EE590E020910A013091CE
:1006F0000B01FC0120838DE590E020910C013091ED
:100700000D01FC0120838F907F906F905F904F9040
:100710003F902F901F900F9018950F921F922F923D
:100720003F924F925F926F927F928F928EE590E010
:10073000FC018081882F90E090930701809306014F
:100740008DE590E0FC018081882F90E09093090175
:1007500080930801789480910001909101010196A5
:10076000909301018093000180910001909101011B
:10077000813DF7E09F0708F445C080912A01882F4A
:1007800090E0880F991F982F80912A01881F882751
:10079000881F892B80932A01109201011092000179
:1007A0002AC08091000190910101209100013091B7
:1007B00001012E5D3E4FF9012081222F30E0220FF2
:1007C000331F422F20910001309101012E5D3E4FD9
:1007D000F9012081221F2227221F242B8E5D9E4F8C
:1007E000FC0120838091000190910101019690937A
:1007F00001018093000180910001909101018830F6
:10080000910578F28EE590E0209106013091070184
:10081000FC0120838DE590E02091080130910901D1
:10082000FC0120838F907F906F905F904F903F905E
:0C0830002F901F900F901895F894FFCFA8
:00000001FF
