:100000000C9434000C943E000C943E000C943E0082
:100010000C943E000C943E000C943E000C943E0068
:100020000C943E000C943E000C943E000C943E0058
:100030000C943E000C943E000C943E000C943E0048
:100040000C943E000C943E000C943E000C943E0038
:100050000C943E000C943E000C943E000C943E0028
:100060000C943E000C943E0011241FBECFEFD8E04C
:10007000DEBFCDBF0E94D2000C9401010C940000A1
:10008000CF93DF9300D000D000D0CDB7DEB79C83F4
:100090008B837E836D8384E290E024E230E0F9017B
:1000A00020812260FC0120831A82198225C085E20A
:1000B00090E025E230E0F90120812260FC012083FC
:1000C0008B819C81BC0182E090E00E948C0085E2E3
:1000D00090E025E230E0F90120812D7FFC012083B2
:1000E0008B819C81BC0182E090E00E948C00898120
:1000F0009A8101969A83898329813A818D819E8193
:1001000028173907A0F226960FB6F894DEBF0FBE67
:10011000CDBFDF91CF910895CF93DF93CDB7DEB7F9
:100120002A970FB6F894DEBF0FBECDBF98878F8396
:100130007A87698789859A859C0140E050E080E054
:1001400094E2A4EFB0E0BC01CD010E94DF00DA012F
:10015000C9019E838D831A82198214C01C821B825E
:1001600005C08B819C8101969C838B832B813C8174
:100170008D819E8128173907A0F389819A81019684
:100180009A83898329813A818F8198852817390735
:1001900028F32A960FB6F894DEBF0FBECDBFDF91CD
:1001A000CF910895CF93DF93CDB7DEB768EE73E0BC
:1001B0008EEE9EE00E944000DF91CF910895A1E273
:1001C0001A2EAA1BBB1BFD010DC0AA1FBB1FEE1FD1
:1001D000FF1FA217B307E407F50720F0A21BB30B1C
:1001E000E40BF50B661F771F881F991F1A9469F798
:1001F00060957095809590959B01AC01BD01CF01F4
:060200000895F894FFCF01
:00000001FF
